:020000040800F2
:10000000F01200204D01000873340008D3300008BE
:1000100071340008D5040008F16E000800000000EB
:10002000000000000000000000000000B55B0008B8
:10003000F309000800000000B53D0008095D000854
:100040006701000867010008B55E00086701000845
:1000500067010008670100086701000867010008E0
:1000600067010008670100086701000867010008D0
:1000700067010008670100086701000839090008E6
:1000800067010008670100086701000867010008B0
:1000900067010008670100086701000867010008A0
:1000A0006701000867010008670100086701000890
:1000B0006701000867010008670100086701000880
:1000C0006701000867010008670100086701000870
:1000D000670100080D6A0008670100086701000851
:1000E0006701000867010008D141000867010008A6
:1000F0006701000867010008670100086701000840
:100100006701000867010008B55200086701000890
:10011000670100086701000867010008670100081F
:10012000670100086701000867010008670100080F
:100130006701000867010008DFF80CD000F0B8F98B
:10014000004800476D710008F01200200648804703
:1001500006480047FEE7FEE7FEE7FEE7FEE7FEE7AC
:10016000FEE7FEE7FEE7FEE7B15E000839010008A2
:100170002DE9F05F0546002092469B4688460646DC
:10018000814640241BE0284641464746224600F06F
:10019000F2F853465A46C01A914110D311461846F8
:1001A000224600F0D9F82D1A67EB01084F46224687
:1001B0000120002100F0D0F817EB00094E41201E6D
:1001C000A4F10104DFDC484631462A464346BDE837
:1001D000F09F40EA01039B0703D009E008C9121F02
:1001E00008C0042AFAD203E011F8013B00F8013BF1
:1001F000521EF9D27047D2B201E000F8012B491E1D
:10020000FBD270470022F6E710B513460A460446B3
:100210001946FFF7F0FF204610BD421C10F8011BE5
:100220000029FBD1801A70472DE9FE4F81EA0304B3
:1002300004F0004421F0004100944FF0000B23F043
:10024000004350EA01045ED052EA03045BD0C3F3DA
:100250000A54C1F30A552C44A4F2F3340194A0FBD0
:100260000254C1F3130141F48011C3F3130343F4A7
:10027000801301FB024400FB034E840A970A44EA00
:10028000815447EA8357A4FB076802958D0A05FB52
:1002900007854FEA932C04FB0C542705029D4FEA77
:1002A000065847EA1637B5EB08056EEB070C870EC4
:1002B000920E47EA811742EA8312A7FB0201B6EBCE
:1002C0000B0164EB00042B0D43EA0C335E1844EB86
:1002D0001C50DA465146E7FB0201C5F313044FEA0E
:1002E0000B3343EA14534FEA0432019C43EA0603FA
:1002F000A4F10C040294009CCDE900B400F05AF87B
:1003000003B0BDE8F08F00200146F9E70EB540F2DA
:10031000334102910021CDE900110A460B4600F05D
:1003200049F803B000BDC1F30A5210B5C1F313017F
:1003300040F2FF3341F480119A4201DA002010BDEF
:1003400040F233439A42A2F2334203DC524200F0BD
:1003500012F810BD904010BD202A04DB203A00FAAC
:1003600002F1002070479140C2F1200320FA03F30C
:10037000194390407047202A04DB203A21FA02F00A
:100380000021704721FA02F3D040C2F120029140CF
:1003900008431946704710B5141E73F1000408DABB
:1003A000401C41F1000192185B411A4301D120F039
:1003B000010010BD2DE9F04D92469B4611B1B1FAF6
:1003C00081F202E0B0FA80F220329046FFF7C4FFDB
:1003D00004460F4640EA0A0041EA0B0153465A46DA
:1003E000084313D0114653EA010019D0C8F1400266
:1003F0005046FFF7C0FF05460E4650465946424656
:10040000FFF7AAFF084305D0012004E02046394643
:10041000BDE8F08D0020054346EAE0762C433743E3
:100420000A986305E40AA0EB08000022FD0A44EAEA
:1004300047540A3002D500200146E9E701051019AA
:100440006941DDE9084500196941BDE8F04DA2E7C1
:1004500070B521F0004303430CD0C1F30A550024CA
:10046000D5EB040564EB0403D617AD1AB34102DBE8
:100470000020014670BD201841EB025170BD000004
:1004800030B5041E71F1000404DB4FF0004440421B
:1004900064EB0101141E73F1000405DB1C464FF0F0
:1004A0000043524263EB04038B4208BF824230BDDB
:1004B000064C074D06E0E06840F0010394E80700B1
:1004C00098471034AC42F6D3FFF73AFE708000082C
:1004D00090800008FEE72DE9FF4103F06DFB09D194
:1004E000E06D012804D1206E30442066304618E0CB
:1004F0000120E0650027A78726662068A16803F031
:1005000020FA03F00BF928B1A06D40F01000A065AF
:10051000276553E003F0A2F908B1012062E003F07F
:10052000E6F8B708000718BF27F0030700F07EFFC2
:1005300080466E1CE18FB4F840008F4288BF87422E
:1005400011D903F023FA002EF4D000F06FFFA0EBD6
:100550000800A84201D8002DECD12068016821F0E4
:100560000101016028E0B4F84200010739D003F02E
:1005700096FA02F01802102A01D103F0ADF911F039
:100580000306C1F1100218BF012606EB92014FEAE3
:1005900092080A463AB1E38F676B013A57F8233065
:1005A00003F08EF8F6E70022032902D882600131B9
:1005B000FAE703F0B3F820B103F087F90120606592
:1005C00010E003F064FA042904D0C36842F8213033
:1005D0000131F8E708EB0600694610B103F0ADF809
:1005E000FBE7002004B0BDE8F0812DE9FF4103F0F6
:1005F000E3FA09D1E06D012804D1206E3044206671
:1006000030461AE00120E0650027A78726662068AB
:10061000A16803F0E4F803F081F838B1A06D40F070
:100620001000A06527650120606565E003F016F9FC
:1006300008B1012060E003F05AF8B708000718BFBE
:1006400027F0030700F0F2FE80466E1CE18FB4F83D
:1006500040008F4288BF874213D903F097F9002EDC
:10066000F4D000F0E3FEA0EB0800A84201D8002D72
:10067000ECD12068016821F00101016003F025F947
:10068000D1E7B4F84200010735D003F008FA12F0C0
:10069000180F01D103F020F911F00306C1F1100287
:1006A00018BF012606EB92014FEA92080A463AB1BA
:1006B000E38F676B013A57F8233003F001F8F6E750
:1006C0000022032902D882600131FAE703F026F8FC
:1006D00008B103F02BF803F0DAF9042904D0C36859
:1006E00042F821300131F8E708EB0600694610B105
:1006F00003F023F8FBE7002004B0BDE8F0817FB5EC
:100700000446C08F03F0A8FAE08F0130E08720464E
:1007100000F0D5F828B1206802F0AAFF204600F0CA
:1007200097FA21680022086840F080000860684657
:10073000042A04D0CB6840F822300132F8E7B4F83C
:100740004210002203318908B4F84030032A0FD840
:1007500099420DD950F82230B4F84050A66B0132BE
:1007600046F82530B4F840300133A4F84030EBE7C8
:100770007FBD00002DE9F8430D46826A01680446FA
:10078000D0F81C900868002A08BF4FEA8909B9F11F
:10079000000F18D001224FEA990803F0DCF9086035
:1007A0005FEA09701CD028F003060027B74224D264
:1007B00003F043F9216800280A684CD142F0800018
:1007C00004370860F2E7626820F006001043012257
:1007D0000860086803F0BFF908600020BDE8F883EE
:1007E00000264645F9D203F028F921680A6890BB33
:1007F00042F0800004360860F3E708F00300024688
:100800004AB1A38FA669013A56F823308B60A38FB3
:100810000133A387F4E719F0030210D0A38F6668B1
:10082000A769033802EB4602134E57F8233056F8F7
:1008300022201A408A6048B101300022FAE760F0B5
:100840000300002210B18A600130FBE702F066FF6E
:1008500021680A6860B122F001000860A06D40F0D4
:100860001000A0650020206501206065BDE8F883C8
:1008700042F08000B0E700BFF07C0008C268EAB137
:1008800099B1B1F5802F19D111680068C163516821
:10089000816391684163D16801631169C1615169E4
:1008A000816191694161D16907E011680068C161A6
:1008B0005168816191684161D16801617047F8B503
:1008C0000C46054600F0B2FD0646671C28684068E5
:1008D000C0071CBF0020F8BD002FF7D000F0A6FD18
:1008E000811B0120A14201D8002CEFD1F8BD0000EE
:1008F000FEB500200490CDE90200032001904FF4E2
:10090000C04000900B48016841F001010160694658
:10091000006800F00100059005984FF0904000F04D
:10092000BFFC00F0CDF900F0D5F900F0CDF906B02C
:1009300080BD00BF4C000058014800F09BBA00BFCA
:100940002408002010B51049836C104C01F164029A
:1009500023F0030302650268A24238BF04F57E71EA
:1009600019441423C1646FF00701A24251FA82F1C5
:10097000B1FBF3F128BF0731012201F01F0102FA98
:1009800001F1416510BD00BF1C080240080402408F
:1009900010B5436807490124583003F07F0301F183
:1009A0004002013B01EB830103F0030304FA03F36C
:1009B0000EC010BD00090240F0B500F1500670CE27
:1009C000656016B1D0E91745656004688568D0E9AF
:1009D0001160012700F01C00102D07FA00F0706074
:1009E0000846636008BF1046A06008BF0A46E26080
:1009F000F0BD7047FEE70000B0B5204A536843F4ED
:100A000080235360EFF31083EFF3108472B6402419
:100A100020C9013C20C02506FAD11068C003FCD4CF
:100A200083F31088B0BD00BF70B5144E044600F0CB
:100A3000FDFC05463068C00305D500F0F7FC401BFF
:100A4000A042F7D317E03068C1071CBF0121316015
:100A50004CF2FA31084004D0094948603060012066
:100A600070BD306840035CBF002070BD00F0DEFC4C
:100A7000401BA042F5D3032070BD00BF10400058BA
:100A8000BC090020F8B503F026F833D102266665CC
:100A9000206D01285ED00020069DE087A4F840006C
:100AA000676A2068002F08BF9200A4F842200268FD
:100AB00066F3C40202600122C4E90D132265634A91
:100AC0000168114008D0202906D0B1F5803F20D020
:100AD000602923D0402928D1E16A012904D1E16DA0
:100AE000012926D00121E1656169402907D102F081
:100AF000DEFF09E002F0E3FF0126A0652AE0216B9A
:100B000051B302F0C7FE0160606988B102F02DFDAB
:100B10000FE020462946FFF7DEFC03E02046294689
:100B2000FFF763FD0646A8B910E002F0C4FFE3E753
:100B3000206802F0D4FF02F0C6FF05D2800881428F
:100B400002D202F023FFF6E702F043FF0026012065
:100B5000266560653046F8BD0168012666F3C4016C
:100B600001602046A168FFF789FE2068016841F016
:100B70000101016002F0D2FD21680A6830B122F063
:100B80000100086002F0A1FE6665E3E742F0800024
:100B900002220860086862F3C4000860B4E700BF7E
:100BA00070B502F098FF2AD102F046FE2BD000204B
:100BB000049DE087A4F84000666A2068002E08BF04
:100BC000920002F090FE2265204A0168114008D090
:100BD000202906D0B1F5803F16D0602919D04029D0
:100BE0001ED1E16A012904D1E16D01291CD0012047
:100BF000E06502F0C4FF16D002F0B7FC14E002F08A
:100C00005EFFA065012070BD20462946FFF763FC0A
:100C100003E020462946FFF7E8FC0028F3D110E066
:100C200002F049FFEDE7206802F059FF02F04BFFA8
:100C300005D28008814202D202F0A8FEF6E702F057
:100C4000C8FE002001212065616570BD60000100C3
:100C500070470000C8B170B50446406D20B900204F
:100C60002065204600F016F894E807006369084EF6
:100C700005683540294311431943016000200121D3
:100C8000A065E0656164616570BD0120704700BFCB
:100C900099FFFAFF81B000680749884209D10748E7
:100CA000016841F400310160006800F400300090F8
:100CB000009801B0704700BF00180058500000585D
:100CC000064802F087BC00BF0448016821F0040117
:100CD00001607047014802F049BD00BF042004E0F4
:100CE00040B3B0B5816A022926D1016800F14404FD
:100CF0001CCC0D6803F01C0325F00E050D60256863
:100D000025F4807525600C6824F001040C60012135
:100D100001FA03F35360D0E914235360826D32B1BA
:100D2000136823F480731360D0E917235360816242
:100D3000002104E0012106E00421016401210022D8
:100D40004262BDE8B04008467047B0B5816A0229EA
:100D500029D10168D0E91132C46C0D6825F00E0567
:100D60000D600D6825F001050D60216821F480718A
:100D7000216002F01C01012202FA01F15960D0E960
:100D800014134B60816D31B10B6823F480730B60D9
:100D9000D0E917134B60002141628262C26B2AB115
:100DA0009047002102E00421016401210846B0BD02
:100DB00060B10068CB06026805D5C90254BF22F4B1
:100DC000801242F4801202600020704701207047B8
:100DD000F8B54FF0010C002844D00368244A7A4F3C
:100DE0000446196802F5806521F0010119601F4968
:100DF0000E1DB3423CBF0025C4F2020538BF07F503
:100E000080671F441420B7FBF0F08700C4E9115736
:100E10000025B3421D6038BF111D1C2202EA80006C
:100E20000CFA00F008602046FFF78CFD606804F1C2
:100E30004C030ECB013803280D60536007D82046C1
:100E4000FFF7A6FD04F1580207CA05604A60256451
:100E5000C4E916552566C4E90C55C4E90E5565620A
:100E6000A56200E001252846F8BD00BF0404024049
:100E700000000240F0B5D0E911230168042403F01A
:100E80001C0316680D689C40344201D06F0719D4CA
:100E900002249C40344201D0AF071DD426FA03F44B
:100EA000240731D52C072FD50C6824F00E040C60D4
:100EB000012101FA03F3536000220164426281625E
:100EC000816B1DE00B689B0603D40B6823F00403C1
:100ED0000B605460416B13E00A68920605D40A68FF
:100EE00022F00A020A600122826200224262074A5C
:100EF00002F17C03994288BF02F580621460016BA5
:100F000011B1BDE8F0400847F0BD00BF0400024049
:100F100000284AD0F8B5044602202A49A06204F10C
:100F20000806206801F1080268CE9042264A38BFC0
:100F3000A1F5806138BF02F5806214270244B2FB3C
:100F4000F7F29200C4E9111247F6F072016891437A
:100F5000016045EA0301626931431143A26911430B
:100F6000E2691143226A114302681143016020467D
:100F7000FFF7E8FCA06804F14C03B0F5804F06BF12
:100F800000206060606800F07F050ECB0138032808
:100F90000D6053600BD82046FFF7FAFC04F15802AD
:100FA000002307CA03604A6005E001207047002063
:100FB000C4E9160020660020012120646062A1625D
:100FC000F8BD00BF00040240F8FBFDBFB0B5044609
:100FD000406A012804BF0220B0BD01206062A06AFF
:100FE000012812D10220A062002020642068056838
:100FF00025F0010505602046FFF7DEFC2068626BE6
:10100000016842B141F00E010BE0002060628020D7
:1010100020640120B0BD21F004010160016841F0AD
:101020000A010160E16C0A68D20303D50A6842F440
:1010300080720A60A16D19B10A6842F480720A6078
:10104000016841F0010101600020B0BD81B0009055
:10105000009801B004F05CBF2DE9F84FDFF824A13F
:101060000546DAF80000012804BF0220BDE8F88F29
:10107000002401208946CAE9000402F021FAC8BB15
:101080002868414B1D4A04289B4607D11968901CCB
:101090000843186002F014FA5B4627E04FF0FF3077
:1010A0001749C9F8000068688846C4000646A96860
:1010B000084486420FD21868174600EA0800204309
:1010C0001043186002F0FCF938B96868083401363A
:1010D0003A465B46EBE7002002E05B46C9F8006059
:1010E000196840F2FA3200249143196053F8141C35
:1010F00053F8141CCAF80040BDE8F88F0200010044
:1011000005FCFEFF1F484068704700BF1E4801688D
:1011100041F0004101600068C043C00F704700BF4C
:101120002DE9F843174F04463868012804BF022010
:10113000BDE8F8834FF000090120984616460D4699
:10114000C7E9000902F0B8F9B8B90F49012C0AD172
:10115000086840F0010008602E60BFF36F8FC5F88B
:1011600004800D4604E028460D463146FFF744FC56
:1011700002F0A2F92968A1432960C7F80090BDE8F0
:10118000F88300BFBC090020144000580648C1681D
:10119000B1F1FF3FC4BF002070470449016004491A
:1011A0000160C068C00F70470840005823016745C0
:1011B000AB89EFCD2DE9FC4F914A4FF000089042EA
:1011C0004FF0070208BF0222002400230092019181
:1011D00031FA03F608BFBDE8FC8F012202FA03F6DC
:1011E00016EA010E57D0884A4FEA930CB0F1904F9F
:1011F00052F82C9007D0854ADDF800A0904208BF35
:101200004FF0010A01E04FF0000A08F00C0B072133
:10121000424601FA0BF80AFA0BF509EA0807AF4251
:101220001BD17849D1F8805025EA0E05C1F88050CD
:10123000D1F8845025EA0E05C1F884500D6825EADE
:101240000E050D604D6825EA0E054D606E4951F89A
:101250002C5025EA080541F82C50032107689046D8
:1012600001FA04F50F212F43076002F01C0701FA71
:1012700007F76FF0030101EA53020244116AB94310
:1012800011628168A94381604168B1434160C168CE
:10129000A943C160019908F104080234013397E7BA
:1012A0002DE9F84F564A4FF000084FF0010B4FF070
:1012B000000E90424FF0070208BF02220092002762
:1012C000514A92460A6832FA07F308BFBDE8F88F20
:1012D0000BFA07F312EA030900F08B804E68122E16
:1012E0004DD80BFA06F515F0061F48D00322846886
:1012F00002FA0EF5CA68AC436FEA050C02FA0EF268
:101300002243826032094468BA4024EA03031A4344
:101310007B004260C2688C6802EA0C029C40224357
:10132000C26046F01002122A11D16FF0030508F0D6
:101330001C020F2405EA5705944005442E6A26EA4C
:1013400004040E6906FA02F222432A624E68026819
:1013500006F0030404FA03F302EA0C021A430260E3
:10136000F20046D5BB0852465AF82360B0F1904FC0
:101370000CD0264A009D904208BF012507E00322B9
:1013800002FA0EF36FEA030C7346C3E7002508F078
:101390000C020724944005FA02F226EA0404194ECE
:1013A000224354464AF82320D6F880204C6842EA6B
:1013B0000903E50358BF22EA0903C6F88030A503F4
:1013C000D6F8842042EA090358BF22EA0903C6F886
:1013D0008430E502326842EA090358BF22EA090371
:1013E0003360A402726842EA090358BF22EA090383
:1013F000736008F104080EF1020E013762E700BFC6
:101400000008004800080058080001400004004897
:10141000426902EA0103914341EA03418161704755
:101420001823002A08BF2823C150704704F09EBD2E
:1014300001480068704700BF9075FF1F01480068B1
:10144000704700BF9475FF1F426C202A02D1026CC6
:10145000012A01D1022115E02422426402681368A6
:1014600023F001031360136823F48053136013689F
:1014700019431160116841F001011160002120221F
:101480000164426408467047426C202A02D1026C13
:10149000012A01D1022114E0242242640268136867
:1014A00023F001031360136823F4706343EA0121FE
:1014B0001160116841F001011160002120220164D6
:1014C0004264084670470000F8B1B0B50446406C6D
:1014D00020B900202064204600F0AAF8242060648F
:1014E000D4E90003D4E90212056823F07063012AED
:1014F00025F0010505600361836823F400438360E0
:1015000005D141F40041816009E00120704741F4B8
:101510000441022A816004BF4FF4006141604168C8
:101520000D4A04F1100511434160C16821F40041E6
:10153000C1602ECD114341EA0321C160216A2943D4
:101540000160016841F00101016000202021E06498
:1015500061642063A064B0BD008000022DE9FE4FED
:1015600002F067FA0CD1DDF830B0BBF1000F09D002
:10157000DDF83480B8F1000F04D0206C012807D1C9
:10158000022502E002F027FB01252846BDE8FE8F78
:1015900002F0D1FA02F01AF90028F6D1222002F066
:1015A00082FB01F0D3FD08B12564EDE7618D1E4893
:1015B000B1F5807F02D302F066F901E002F07EF916
:1015C0002046514601F0E6FD0027FF262046042173
:1015D0000022434602F0A6F80028D5D102F055F8C3
:1015E00012D188B1204680210022434602F09AF8A9
:1015F0000028C9D102F0B6FA02D302F0E4FA01E001
:1016000002F0A0FA01F0C6FD608D0028DED1204670
:10161000414602F008FB0028B6D120682021034B88
:1016200002F0A4FAB1E700BF0024008000E800FE49
:1016300010B594B004460EA81421FEF7E3FD6846E9
:1016400034210430FEF7DEFD2068184988422BD192
:101650004FF4401005904FF480700090684600F001
:1016600009F908B1FFF7C6F9114C206840F00400F1
:101670002060206800F004001390042012900020E5
:10168000CDE9100012200F9003200E9013980EA9A0
:101690000848FFF705FEE06840F40000E060E068FD
:1016A00000F400001390139814B010BD005C0040CB
:1016B0004C000058000800480348044940680A6884
:1016C00010440860704700BF28000020E80A00208E
:1016D00080B5032000F058F800F06CFA3F4908602C
:1016E0000F2000F007F808B1012080BD00F004F8D9
:1016F000002080BD002070477047000000280CD4F7
:1017000000F01F010122400902FA01F1034A42F8E8
:101710002010BFF34F8FBFF36F8F704780E100E061
:10172000002808D400F01F010122400902FA01F14B
:10173000014A42F82010704700E100E0F0B5184B74
:101740004FF0FF361C68C4F30224E51E84F0070442
:1017500038BF002506FA05F7BA43042C28BF042435
:1017600006FA04F4A14300F00F04A940043C11431D
:101770002344044A09010C33B0F1FF3FC8BF83186A
:101780001970F0BD00E400E005494FF6FF030A6858
:101790001A4060F30A22034810430860704700BFF4
:1017A0000CED00E00000FA0520483222016821F427
:1017B00080410160094909685143094AB1FBF2F1CE
:1017C0004A1E43698A4203D213F400711146F7D1CD
:1017D00040690321800501EAE07070473C00002069
:1017E00040420F00114802F081B900BF0F490223A7
:1017F00001280A6863F302020A601D490A6842F080
:1018000004020A600FBF30BF40BF20BF20BF01F0FD
:101810005BBE00BF0548006800F4C060704700BFB1
:101820000248016841F4807101607047000400586B
:1018300010B50C460D49096801F4007118B139B9A9
:10184000FFF7D0FF04E019B1FFF7AEFF00B110BD04
:101850000748012C016821F00401016004BF30BF7A
:1018600010BD40BF20BF20BF10BD00BF14040058F2
:1018700010ED00E0F8B504468078544EC00742D021
:10188000FFF7CEFFFFF7D2FD0546D6F8F403C005FB
:1018900006D4FFF7CBFD401B0228F6D9032533E021
:1018A000606BD6F8841001F44071814224D0D6F8E0
:1018B0008410D6F8842042F48032C6F88420D6F80A
:1018C000842022F48032C6F8842021F440728907F3
:1018D0000146C6F884200FD5FFF7A8FD054641F262
:1018E0008837D6F88400800705D4FFF79FFD401B9A
:1018F000B842F6D9D2E7616BD6F8840020F4407084
:101900000843C6F8840000252068C10702D061683A
:1019100002F06BF8810702D5A16802F066F8810633
:1019200005D52169F26F22F440621143F167810508
:1019300002D5216A01F0E1FD410502D5616A01F09D
:10194000DCFD010502D5A16A01F0D7FD410603D5F2
:10195000606901F0DFFC2068010603D5A06901F091
:10196000D9FC2068C10503D5E06901F0D3FC2068EB
:10197000C1060CD5E168F26F22F440720A43B1F55A
:10198000807FF26703D1316841F0807131600104DA
:101990000AD5216BF26F22F040420A43F26719B96F
:1019A000316841F08071316040040CD5E06AF16F1C
:1019B00021F040510143B0F1005FF16703D130687D
:1019C00040F4803030602846F8BD00BF0C0000585D
:1019D0002DE9F843002800F0B780734F05460C4608
:1019E000386800F00700884211D2386820F00700FC
:1019F000204302F080F80646386800F00700A04255
:101A000005D0FFF713FD801B0228F5D96EE028688A
:101A1000B9467C4F810711D5A868396821F0F001DB
:101A2000084302F068F806463868C00305D4FFF79B
:101A3000FDFC801B0228F7D958E02868810615D5DF
:101A40006869D7F8001121F0F0010843C7F80001D8
:101A5000FFF7ECFC0646D7F80001800305D4FFF73A
:101A6000E5FC801B0228F6D940E02868410616D51F
:101A7000A869D7F8001121F00F0141EA1010C7F84A
:101A80000001FFF7D3FC0646D7F80001C00305D4D8
:101A9000FFF7CCFC801B0228F6D927E02868410715
:101AA00011D5E868396821F4E061084302F023F8B1
:101AB00006463868800305D4FFF7B8FC801B02286F
:101AC000F7D913E02868010714D52869396821F48B
:101AD000605141EAC00002F00EF806463868400343
:101AE00007D4FFF7A3FC801B0228F7D90320BDE829
:101AF000F8832868C0071CD1D9F8000000F007005F
:101B0000A04224D9D9F8000020F007002043C9F8EA
:101B10000000FFF78BFC05464846D9F8000000F0AE
:101B20000700A04213D0FFF781FC01F05AFFF3D960
:101B300030E068684FF0B04198B103282CD00228FB
:101B40002ED1096889030FD40120BDE8F88300F085
:101B500031F81649086016480068BDE8F843FFF7F9
:101B6000C9BD09688907EFD5396821F00301084329
:101B700001F0C1FF064641F288386868396801F013
:101B80000C01B1EB800FB7D0FFF750FC811B032095
:101B90004145F2D9BDE8F88309688901D4D5E3E766
:101BA00009684905D0D5DFE7004000583C00002017
:101BB0002800002080B500F029F812493C2209686D
:101BC00002EA9101024A5158B0FBF1F080BD00BF1A
:101BD000387D000880B5FFF7EDFF0A490A4A096819
:101BE000C1F3022152F82110C84080BD80B5FFF733
:101BF000E1FF0449044A0968C1F3C22152F82110E7
:101C0000C84080BD08000058787D000810B53649EE
:101C100051F8042C086812F00C0205D00C2A15D1DA
:101C200000F00300012811D14FF0B04003680068B4
:101C300000F008001B0705D4B8B9D1F88800C0F33C
:101C400003201CE0B0B9D1F8880011E02748042A2D
:101C50001ED0082A1BD14FF0B0421268D2025CBFDE
:101C600044F60000C0F2E81012E04FF0B040006807
:101C7000002004E04FF0B0400068C0F303101C4B9C
:101C8000002A53F82030184618BF002001E0002039
:101C9000002351F8042C02F00C020C2A22D108680F
:101CA00000F003021148022A0CD0032A09D14FF098
:101CB000B0421268D2025CBF44F60000C0F2E810E5
:101CC00000E018460A680B6809680124C2F306227E
:101CD00004EB51715043C3F302120132B0FBF2F036
:101CE000B0FBF1F010BD00BF0C0000580024F40060
:101CF000547E00082DE9F047002800F05981DE4CA1
:101D00008246606800F00C08A06800F003099AF8A9
:101D10000000800627D49AF80000C00770D0B8F100
:101D2000080F63D0B8F10C0F08BFB9F1030F5DD0F5
:101D30004FF0B041DAE901020B6823F480131A4333
:101D4000B0F5803F0A6009D0B0F5041F40F09681DD
:101D50004FF0B040026842F400120260086840F49C
:101D60008030086097E1B8F1000F1DD0B8F10C0F7A
:101D700008BFB9F1010F17D04FF0B0463068DAF85C
:101D80002010002900F0348140F0010001F027FC10
:101D900005463068800700F13A81FFF747FB01F004
:101DA00020FEF6D9BDE8F0874FF0B0410868800703
:101DB00004D5DAF82000002800F0FA80DAF82800CC
:101DC0000968090759BFD4F8901009094FF0B041CC
:101DD000096801F0F001884240F2D48002F0EAF88C
:101DE000002840F0E58001F074FBE4E04FF0B040E3
:101DF0000068800304D5DAF80400002800F0D880D9
:101E00009AF80000800730D5B8F1040F1BD0B8F164
:101E10000C0F08BFB9F1020F15D04FF0B046306873
:101E2000DAF81010002900F0468140F4807001F0CB
:101E3000D6FB0546306840050FD4FFF7F7FA01F0EE
:101E4000D0FDF7D9AEE74FF0B0400068400504D5AB
:101E5000DAF81000002800F0AB80DAF814002168EE
:101E600021F0FE4141EA006020609AF8000000077E
:101E70002CD49AF8000040074FD4DAF82C0010B3A5
:101E8000B8F10C0F40F0C680012800F09180DAF81C
:101E90003010A06800F003028A4240F08980DAF82E
:101EA000341000F070028A4240F08280DAF8381074
:101EB00000F4FE42B2EB012F7AD1DAF8441000F0C0
:101EC0006040884274D10020BDE8F087D4F89010BB
:101ED000DAF8180000287AD0DAF81C0001F01002B5
:101EE000904200F08D8101F00302022A60D0C90700
:101EF00000F07F81D4F8900020F0010001F04AFE4C
:101F00000546D4F89000800740F17181FFF78EFA02
:101F1000411B03201129F4D944E7D4F8FC03C00580
:101F20000ED4FFF77DFCFFF781FA0546D4F8FC03D9
:101F3000C00505D4FFF77AFA01F053FDF6D931E771
:101F4000DAF80C00002800F0C580852801D00528AB
:101F500005D1D4F88C0040F00400C4F88C00FFF7E1
:101F600065FA01F008FC40F00100C4F88C00D4F8D8
:101F70008C00800764D4FFF759FA411B0320B1425B
:101F8000F5D90FE74FF0B0410A6842F008020A6045
:101F90000A6822F0F00202430A60DAF8241022688C
:101FA00022F47F4242EA0121216002F003F810B1DD
:101FB0000120BDE8F087FFF7FDFD9B4908609B48C5
:101FC0000068FFF797FB00287FF4ECAEA3E621F052
:101FD000010001F0DFFD0546D4F8900080077FF591
:101FE00048AFFFF723FA411B03201129F4D9D9E6A2
:101FF00020F0010001F0F3FA0546306880077FF514
:102000008AAEFFF713FA01F0ECFCF6D9CAE601F04C
:1020100060FA80E64FF0B0460228316821F0807106
:10202000316071D1FFF702FA05463068800140F156
:102030008180FFF7FBF9411B03200A29F5D9B1E69E
:10204000DAF80C0040F00400852840F09980FFF792
:10205000EDF901F090FB40F08000C4F88C00D4F85A
:102060008C0000053FF509AFFFF7E0F9411B0320A5
:10207000B142F4D996E600BF040000584FF0B046D4
:102080000028316821F480313160316821F4001179
:10209000316000F09E80FFF7C9F905464FF0B04669
:1020A000306880033FF5ACAEFFF7C0F9411B032059
:1020B0006429F5D976E620F4807001F090FA05469F
:1020C000306840057FF5D1AEFFF7B0F901F089FC2B
:1020D000F6D967E6FFF7AAF90646D4F88C0041F274
:1020E000883920F08000C4F88C00D4F88C00274692
:1020F0000405FFF79BF90546002C55D5A91B0320C5
:102100003C464945F1D94DE6A068494920F0030015
:10211000A060A0680840A060FFF788F90446306816
:1021200080017FF5D0AEFFF781F9011B03200A295A
:10213000F5D937E6A0683F490AF130070840EECFED
:102140000843104340EA032028434FF0B045304392
:102150003843A060286840F080702860A06840F094
:102160008050A060FFF762F90446286880013FF5BF
:10217000AAAEFFF75BF9011B03200A29F5D911E686
:10218000FFF754F901F0F7FA20F08000C4F88C0052
:10219000D4F88C0000057FF570AEFFF747F9411BBE
:1021A0000320B142F4D9FDE5D7F88C003C4641F25A
:1021B000883620F00100C7F88C00D4F88C00800726
:1021C0007FF55BAEFFF732F9411B0320B142F4D932
:1021D000E8E5FFF72BF90546306880037FF510AE80
:1021E000FFF724F9411B03206429F5D9DAE5DAF871
:1021F0001C00D4F8901021F010010843C4F890009E
:10220000D4F8900040F0010001F0C4FC0546D4F879
:10221000900080073FF52DAEFFF708F9401B11280D
:10222000F5D90320BDE8F0873C00002028000020FD
:10223000FFFFFEEE8C80C1117047F8B50446806840
:10224000012801D102253FE00120A060E0680128BB
:1022500008D102200E46E06020684068400605D4A0
:1022600000250DE00420012520612BE008202061DD
:10227000204601F06BFF0546012801D1012523E02E
:10228000FFF7D4F8074620684168C9070BD1FFF76C
:10229000CDF8C01B0328F6D301250020E560A0601F
:1022A0000220206110E0816861614268520601D419
:1022B000316005E008212161416821F001014160A0
:1022C0000120E0600020A0602846F8BDB0B560B3F2
:1022D0000446C06820B90020A060204600F05EF8E7
:1022E0000220E060D4E90001026822F004020260EA
:1022F000026822F02002114341F080410160204930
:1023000001614AF67421016101F03AF9054620683D
:102310000168490013D5FFF789F8401B0328F6D35D
:1023200001200221E0602161B0BD16A4002000213F
:102330000022234604F070FB0028F7D119E0016861
:1023400041F0040101604068400610D4FFF76EF8C8
:1023500005462068406840070DD5FFF767F8401B29
:102360000328F6D30420E0600220206101E004206D
:10237000E0600120B0BD0120E06000202061B0BD20
:10238000BC0A59172A2A2A2A2A2A2A2A2A0A205221
:102390004E475F4552524F525F310A00B0B590B080
:1023A000044601A834210430FDF72CFF0E4D2168AE
:1023B00005F57B60814214D14FF040400D904FF401
:1023C0000040019001A8FFF755FA08B1FEF712FB93
:1023D000286840F480202860286800F480200F904E
:1023E0000F9810B0B0BD00BF5000005870470000FB
:1023F000034850F821007047014840F821207047F9
:1024000000B10040C26A0221012A0BD00163B04929
:10241000734601F01BF99E4642F02002734601F01C
:102420007CF89E460846704780B503F047FD0130B2
:10243000BDE8804003F04EBD10B504461F4801685A
:10244000490604D5402181602046FFF7EDFF0120B9
:10245000206310BDC26A0221012A13D001639C4986
:10246000734601F0F3F89E4642F080020A609A4AF1
:10247000136843F480231360FF22CA600021012205
:10248000C16202630846704704F06ABC70B50B4D28
:1024900004462868616B01EA0006F00704D00120B9
:1024A000A8602046FFF7F0FFB00704D50220A8601F
:1024B0002046FFF79BFF0120206370BD5428004099
:1024C00010B5C36A0222012B28D00263804ACA23B6
:1024D000D3605323D3603423B1F5807F08BF2C230E
:1024E0009C58B1F5807F24F000449C506FF4085351
:1024F00008BF6FF48853146823401360FF23D36030
:1025000000226FF00203C262B1F5807F08BF6FF056
:102510000103416B1940416301210163104610BD65
:1025200070B578B30446006B20B90020E062204605
:1025300000F03CF80220754D2063CA20A8615320AA
:10254000A861204601F05CFEC8B9E8681649261D5E
:102550000840E8604ECEA06931430843E96808436B
:10256000E86043EA02406860D4E909012A6822F47D
:10257000F85210430843286001F065F820B1FF21AC
:10258000A96170BD012070BD6069D4E90712EB68D4
:1025900023F060431A4311430843E860FF20A86119
:1025A00001202063002070BDBFFF8FFB10B590B0ED
:1025B000044601A830210430FDF724FE20681749A5
:1025C000884229D14FF480700E904FF480300190F2
:1025D00001A8FFF74FF908B1FEF70CFA10480022E6
:1025E000816B41F400418163016841F480610160C5
:1025F0000021006800F480600F900F980220FFF720
:102600009DF80220FFF78CF82A2000210022FFF716
:1026100095F82A20FFF784F810B010BD002800407C
:10262000580000582DE9F04700F071FF4ED02063AC
:102630000120274F01F0DAFA01D100201CE03868B0
:1026400000F040001AB188B90021E97010E008B923
:102650000020E8702878DFF87CA0D04780466878B2
:10266000D04700F0F9FF01F049FA03E0E87881056E
:1026700000F0B8FF01F010FB01F0BEF90ED101F03F
:10268000D5FA19BFB862A869D5E906010843F8620E
:1026900068680121B8654FF488500DE001F07EFABA
:1026A00019BF3863A869D5E90601084378636868EB
:1026B0000221F8654FF408503A6810433860064824
:1026C000026842F40032026001F05BF8BDE8F08776
:1026D00018280040DD41000880080058B0B50B4DB7
:1026E000286860F0A0002860FEF7A0FE0446286875
:1026F000800644BF0020B0BDFEF798FE001BB0F579
:102700007A7F84BF0320B0BDF1E700BF0C280040F2
:10271000014800F0CCBE00BF10E000E0012904D069
:1027200041B9CC48816880200847CA4881684FF485
:1027300080700847704700BFC6488168402008473E
:102740002DE9F04101F07AFA02D1A068012802D106
:102750000220BDE8F08100F051FFED49086888468D
:1027600020F400400860F9B201F020FA2046002170
:10277000002702F05BFDAF4204D201F03FFA0137BF
:102780000136F8E701F041F900F0CFFE18BF012053
:10279000BDE8F0812DE9F04101F050FA02D1A068C6
:1027A000012802D10220BDE8F081012520461E4605
:1027B00017468846A56002F065FD48F010005FFAF4
:1027C00088F1942818BF00252571D14D286820F480
:1027D0000040286001F0EAF92EB117F8011B01F062
:1027E000E5F9013EF8E72868B8F1840F40F40040AD
:1027F000286002D0204602F061FD00F096FE18BF6E
:102800000120BDE8F08100BF924881682020084780
:1028100090488168102008477CB5044600200DF1DF
:10282000060212210223ADF806002046FFF788FFBA
:102830009DF807609DF80650F00702D0204600F092
:1028400005F9B00702D5204600F0F2F8700702D56E
:10285000204600F091F8300702D5204600F0F2F84B
:10286000F00602D52046FFF7D3FFB00602D520467A
:10287000FFF7CAFF700602D52046FFF75DFF30065E
:1028800004D505F001012046FFF748FFA80702D54F
:10289000204600F0D1F80DF1060220460221022365
:1028A000FFF778FF7CBD0000BCB510B30446C068DC
:1028B00020B90020A060204600F046F802201E4A01
:1028C0006423E0601D48815821F4004181501C4977
:1028D0000968C1EBC101C1F34C4159430191019910
:1028E00049B1019B013B019383585B04F7D4002558
:1028F00003E001251DE001252561D0F8882042F480
:102900000042C0F888200F4A136843F480531360D4
:10291000026842F4006202604FF40062026131B169
:10292000206802F045FC0020206101202071012078
:10293000E0602846BCBD00BF8CFCFFFF08040058C7
:102940003C00002090080058E0B50A4800220168C9
:1029500041F0010101600021006800F001000190D8
:1029600001983220FEF7EAFE3220BDE88C40FEF7E7
:10297000D7BE00BF6400005836488168042008476D
:102980002DE9F84301F05AF902D1A068012802D1DB
:102990000220BDE8F88300F031FE5D49DFF8748164
:1029A00000F0B3FF1E21C04720463946C0472046ED
:1029B00000210027C047AF4204D201F01FF90137C0
:1029C0000136F8E700F0E7FE00F0AFFD18BF012088
:1029D000BDE8F8832DE9F84301F030F902D1A06891
:1029E000012802D10220BDE8F88300F007FE484923
:1029F000DFF8208100F089FF1D21C047390A2046F9
:102A0000C047F9B22046C047204600210027C047F2
:102A1000AF4204D201F0F2F801370136F8E700F0D6
:102A2000BAFE00F082FD18BF0120BDE8F88300BFA8
:102A30000848816802200847064881684FF4007002
:102A4000084700BF0348816808200847014881689B
:102A5000012008479C0100202DE9F04101F0EEF82B
:102A600002D1A068012802D10220BDE8F08100F067
:102A7000C5FD27490868884620F4004008602046C4
:102A80000E2102F0D3FB2046394602F0CFFB2DB1D8
:102A900016F8011B01F08AF8013DF8E700F0B5FFD8
:102AA00000F043FD18BF0120BDE8F0812DE9F84397
:102AB00001F0C4F81CBF0220BDE8F8830F46A168EE
:102AC0000220012921D0E06001201D461646A060A9
:102AD000204602F0D7FB0E49DFF8388000F015FFE2
:102AE0000D21C047390A2046C047F9B22046C047E9
:102AF0002DB116F8011B01F059F8013DF8E700F07F
:102B00004AFE00F012FD18BF0120BDE8F88300BFA7
:102B1000900400582D520008014800F027BE00BF65
:102B200010E000E010B500F007FF04BF022010BD68
:102B30002420C4F8840020680168026822F00102A1
:102B400041F0005102600122C4F880204FF0005291
:102B500062660160204603F0A3FB00202021C4F838
:102B60008000C4F8841010BD0146D0F88000012810
:102B700004BF022070470020C1F8800009680A687D
:102B800042F002020A60704770477047B0B500F02B
:102B9000D3FE04BF0220B0BD00F0D9FC22F0606279
:102BA00000F042FF00F03BBDB0B500F0C5FE04BF31
:102BB0000220B0BD00F0CBFC22F0604200F034FFF8
:102BC00000F02DBDBCB500F0B7FE04BF0220BCBDB7
:102BD0002420C4F884002068036823F00103036004
:102BE0000123C4F88030836823F440130B438360CF
:102BF00059B9436891B223F0100319434160C2F3FD
:102C00000741426861F31F624260016841F00101BF
:102C10000160FEF70BFC03466FF07E404FF480012D
:102C2000002200250090204603F0B0FE08B10320EA
:102C300003E02020C4F884000020C4F88050BCBD0C
:102C4000704770477047000070B50168044640F651
:102C50000F05CA6908688B682A4272D08B4D00EA5A
:102C600005068B4D1D40761975D0D60709D0C605CF
:102C700007D501260E62D4F88C6046F00106C4F830
:102C80008C60960709D5DE0707D002260E62D4F8BD
:102C90008C6046F00406C4F88C60560709D5DE0740
:102CA00007D004260E62D4F88C6046F00206C4F801
:102CB0008C6016070BD500F02006354307D0082599
:102CC0000D62D4F88C5045F00805C4F88C501505F9
:102CD0000AD5450108D54FF400650D62D4F88C5033
:102CE00045F02005C4F88C50D4F88C50002D70D0DD
:102CF00092060AD500F0200003F08052801804D01C
:102D0000226F12B1204690472168D4F88C00896860
:102D100000F0280001F04001401854D0204603F094
:102D2000A5FB20688168490648D500F09AFC45D08B
:102D30005849C163FEF709F800284AD0E06FC16B1B
:102D40001FE0950607D500F0200503F08056AD1969
:102D500001D0216F13E0E56E012D03D1D50601D519
:102D6000C50637D4D50201D55D021FD415060BD593
:102D700000F0800503F400035B1905D0616F41B3D7
:102D80002046BDE870400847530601D5430644D4A9
:102D9000110201D541004ED4D1011AD5B0F1FF3F47
:102DA00017DC2046BDE87040FFF7EFBE4FF48010FF
:102DB00008622046BDE87040FFF743BF2046BDE8EB
:102DC0007040FFF73FBF2046FFF73CFF0020C4F8EC
:102DD0008C0070BD102008628868400630D4B4F8BA
:102DE0005E00B4F85C20B4F85E30002BF1D0101A0D
:102DF0000204EED00A68284B22F490720A608A68B6
:102E00001A408A602022C4F888200022E2662267E5
:102E10000A6822F010020A6032E0086820F04000E0
:102E20000860002060672020C4F884002046BDE8C8
:102E3000704000F047B92046BDE87040FFF700BF82
:102E4000E06F03685D68AEB2002EC2D0B4F85C20BB
:102E50009642BED2A4F85E501B689B060DD400F0CB
:102E6000D1FEC4F888200022E2660A6822F010022F
:102E70000A60FDF735FFB4F85C20B4F85E00101A64
:102E800081B22046BDE87040FFF77EBE20010004FD
:102E900001000010D9630008FEFFFFEF10B548B134
:102EA0000446D0F8840008B900F0B8FD00F044FBF7
:102EB000012801D1012010BDA06A08B100F083FDF6
:102EC00000F068FD21F02A01816000F0BBFEBDE842
:102ED000104003F05BBA000010B5044600683D499D
:102EE000884218BF10BD0948016821F40031016013
:102EF0004FF090400C21FEF75DF9A06FFDF768FFE1
:102F00002520BDE81040FEF7F9BB00BF580000586F
:102F100070B594B004460EA81421FDF773F9684605
:102F200034210430FDF76EF920682A4988424FD1D8
:102F300029480225009502906846FEF79BFC08B1DF
:102F4000FDF758FDF2480026C16841F40031C16028
:102F5000C16801F4003113911399016841F0010136
:102F60000160006800F0010013900720CDE90F56C2
:102F70001290032011900C200E9013980EA94FF080
:102F80009040FEF78DF91548154D8021102214232D
:102F9000C0E90053C0E90226C0E90416C0E906668C
:102FA0000662FDF7B5FF08B1FDF724FD0B4D1021BA
:102FB0002846FDF7FDFE08B1FDF71CFD2520022186
:102FC0000022EC62A567FEF7B9FB2520FEF7A8FBFF
:102FD00014B070BD0044004004000C002408002020
:102FE0005800024010B5D0F88830202B05D131B1FF
:102FF0002AB1D0F88030012B03D1022408E001244B
:1030000006E000240123C466C0F8803003F05AFCB7
:10301000204610BD10B504460848436833B1D4F8C3
:103020008C0018B905480121002298470349204621
:103030000122BDE81040FFF7D5BF00BFEC00002023
:10304000F8B50546D0F88400202806D131B31346E0
:1030500022B3D5F88000012801D102241FE000240A
:103060000120A5F85630C5F88C40C5F88000212015
:10307000A5F854302965C5F88400A86F88B10E4AB8
:103080000E4E0F4FC0E90E242A68C0E90C76283294
:10309000FDF79CFF28B1102000F0BEFB0124204664
:1030A000F8BD286840210162C5F88040816841F080
:1030B00080018160F3E700BFE963000867640008EE
:1030C0003F64000801480168002008470C07002001
:1030D0007047FEE700688169890744BF002181626B
:1030E0008169C90703D1816941F00101816170479C
:1030F000F8B5044600680E468169C9065CBF002029
:10310000F8BD1546771C816989060AD4002FFAD0CC
:10311000FEF78CF9411B2020B1420ED86EB1206819
:10312000F1E71021C1612021C16100F04FFC20684E
:10313000054A4168114041600420E16C084300F0F9
:1031400086FB0120F8BD00BF00E800FE2DE9FC4130
:1031500004460F4815461E46DAB2002300F078FDFB
:1031600000F0E2FC10B10120BDE8FC81012E03D08B
:1031700000F01EFC0028F6D100F031FD4021009740
:1031800000F01CF8002818BF0120BDE8FC8100BF3A
:103190000020008070B500686FF39F21049D064EEB
:1031A0001943446841EA0241294324EA5554344012
:1031B0002143416070BD00BF009C00FC2DE9F84335
:1031C000DDF820801D4616460F4681465C1CD9F866
:1031D000000080693840C01BB0FA80F04009B0425E
:1031E0001AD1002CF3D0FEF721F9A0EB0800A84279
:1031F00001D8002DEBD1D9F84C0040F02000C9F8DF
:103200004C002020C9F844000020C9F84000C9F84B
:1032100048000120BDE8F8830020BDE8F88370B5C0
:1032200015460E46044620688069800644BF00208B
:1032300070BD00F027FC58B9FEF7F8F8401BB0420B
:1032400001D8002EEFD1E06C40F0200000F0FFFA32
:10325000012070BDF8B515460E4604464F1C206887
:103260008069800744BF0020F8BD00F00BFC68B9FE
:10327000002FF4D0FEF7DAF8401BB04201D8002E40
:10328000EDD1E06C40F0200000F0E1FA0120F8BD43
:1032900081B005490A6802430A6009680840009045
:1032A000009801B0704700BF4800005881B018492D
:1032B0000A6802430A60096808400090009801B05B
:1032C000704700BF81B012490A6802430A6009686A
:1032D00008400090009801B0704700BF81B00C49D1
:1032E0000A6802430A60096808400090009801B02B
:1032F000704700BF81B00648016841F004010160D9
:10330000006800F004000090009801B0704700BF12
:103310004C000058064A6FF47F2161EA101100F456
:103320007F401368194041EA00101060704700BFE9
:103330008800005880B50420FFF7AAFF0120FFF79E
:10334000A7FF0F2002210022FEF7F8F90F20BDE8A9
:103350008040FEF7E5B9000080B58CB001A82821B7
:10336000FCF750FF174800224FF480714FF0804364
:10337000C0E908211F21C0E90422C0E906238160B9
:1033800011490160FFF7CCF808B1FDF733FB0D4898
:10339000FFF760F808B1FDF72DFB4FF480700122B4
:1033A0000B904FF00050079000200690029008907C
:1033B000044801A9FFF736F908B1FDF71BFB0CB073
:1033C00080BD00BFDC0800200028004080B5054813
:1033D00008210160FFF768FA18B1BDE88040FDF7E9
:1033E00009BB80BD1809002080B502F0C5FCBDE80E
:1033F000804002F005BC4FF0FF3003F0F5BB000049
:1034000010B5174C00210C20164B4FF4E132C4E9E3
:103410000410C4E9021104F118001421C4E90032B7
:10342000FCF7F0FE2046FFF739FD08B1FDF7E2FAA0
:103430000B480021FFF7B8FB08B1FDF7DBFA08489D
:103440000021FFF7A3FB08B1FDF7D4FA0448FFF70A
:1034500069FB18B1BDE81040FDF7CCBA10BD00BF44
:103460002C0900200044004041EA002003F058BE2F
:10347000FEE7704701200021012203F0CDBA82024D
:10348000810D002310464FF47A72FCF771BE02954D
:10349000CDE900062046FEF761B800210122009028
:1034A000012003F0B9BA50F82420284630470168BB
:1034B00041F00201016070474FF47A70FDF7B4BA31
:1034C0004FF47A70FDF7B0BA086820F00400086085
:1034D00070474FF0B040016841F008010160DAE93F
:1034E0000912036823F0F0031A430260206820F4F5
:1034F0007F4040EA0120206070474FF6FF72F36F73
:1035000062EA01021A4042EA0141F16770470D4642
:10351000C16A04460220012970470A60FF22CA607E
:1035200000210122C1620263704700200121A060D6
:103530002069E160002870472420C4F884002068D6
:10354000016821F001010160204603F0CBB824207E
:10355000C4F8840020680568026822F00102026055
:103560000122C4F8802082687047216920680A68B7
:10357000C2624A6882628A684262C96801627047B0
:10358000016821F080410160FDF750BF4FF6FF70E8
:103590004FF6FF710022002302F042B80123FFF72B
:1035A000F9B84DF808ED02F017FE6FF002005DF873
:1035B00008EB7047208800213061204604F088B86D
:1035C00020464FF48071FEF77BBF00F128052846A6
:1035D000FEF7E4BE016821F0010101607047306030
:1035E000FDF724BF6B782A78AE7895F824001B028B
:1035F00043EA0242324442EA0106704701201D4676
:1036000016460F46A060204601F03CBE016821F03E
:10361000100101602046B4F85C10FFF7B5BA2068CD
:10362000202105600020C4F88000C4F88410B0BDDB
:103630000022002301F0F4BF8DF807000323CA60C5
:10364000010A000C7047204600F002BECA22CA6080
:103650005322CA600A687047000240EA0846A87808
:103660005047816821F040018160E06F0028704779
:10367000016821F001010160A06D40F01000A0651B
:10368000002020650120606570472068616A406AFB
:103690000870608D01386085606A01306062208D3D
:1036A000411E21850904608D704721F4D0710160AD
:1036B000816821F0010181602020C4F884007047F6
:1036C0008360E38F0133E387704701220262D4F8FD
:1036D0008C2042F00102C4F88C2070470421016262
:1036E000D4F88C0040F00200C4F88C0070472068C9
:1036F0000222016862F34E3101606264016821F4C4
:1037000070010160B4F84200704702220262D4F8EE
:103710008C2042F00402C4F88C20704720462946D1
:10372000FDF7CDB8CDF80090FFF748BD002020652B
:10373000012060652046FDF78BBAB4F84020A36BEA
:1037400020C9013843F82250B4F840200132A4F8CF
:10375000402070474FF47A70294608222346009093
:103760007047D0E910230120FDF7DABC016821F091
:103770000201016070470546D4F88C0041F288369A
:103780007047FF20F8600020626BE06211436163C4
:10379000012121637047D9F8000040F40040C9F8C6
:1037A0000000204601F08ABD20684A46016821F4E5
:1037B00080710160816801EA090181602021C4F8FB
:1037C0008810C4F870A0E16E01297047814600900E
:1037D00020464FF4004101221923FFF7EFBC4DF8BA
:1037E00008ED026822F4C04202602046FDF746F868
:1037F000216920680A68C2624A6882628A684262F5
:10380000C9680162016841F0010101605DF808EBDF
:103810007047002002F0E2B8C5F88C000020C5F81F
:1038200080002020C5F8840070472167016841F0BE
:1038300020010160BDE8F88F02206065256D012D33
:10384000704700222B460090204603F09FB8E064AA
:103850002020606400202064A06470472068016814
:1038600041F08001016020462946FCF783BF0168D2
:103870008268B4F86050D4F88830222B7047B4F8CE
:103880005E0000287047FF21FF224FF080732185E2
:10389000009070474DF808EDA1682046FCF7EEFF58
:1038A0002068016841F018015DF808EB704720209E
:1038B000C4F88400C4F8880000207047618D4FF080
:1038C000007321850090CAB27047A06D40F01000CF
:1038D000A065002020657047026822F4700242EA69
:1038E000015202607047A4F84220026822F01802D8
:1038F00002600122C4E90D137047096801F00F014D
:1039000052F82110B0FBF1F070470868894620F4A6
:103910000040086020467047016821F49071016002
:10392000816821F0010181602021C4F88810002104
:103930002167E16E012970470446D0F88000012814
:1039400070474DF808ED026822F4C042026020463C
:10395000FCF794FF216A20680A68C2624A688262A2
:103960008A684262C9680162016841F00101016030
:103970005DF808EB7047214600F12005284603F06A
:1039800035BA816941F00801816110BD20462946A0
:10399000FCF7B5BE2068416821F490414160816820
:1039A00070470870B4F85E000138A4F85E007047F4
:1039B0002068290A3A46816220464146FFF74ABC00
:1039C0002046FFF727BB204602F08CBC2046FFF7BD
:1039D00081BB2068016821F0010101600120606560
:1039E0007047411B032002297047F26F22EA1142FF
:1039F00089B21143F1677047CA21F9605321F96018
:103A00003968AA6AB2F5807F7047D8F8000040F4A0
:103A10000040C8F80000204601F050BC0020C4F867
:103A200080002046FFF774BA11438160204602F0FF
:103A300037BC0446406C20287047A08FA26952F81A
:103A400020008860A08F0130A087A08F52F820004E
:103A50008860A08F0130A087A08F52F82000886076
:103A6000A08F0130A087A08F52F8200088602946DF
:103A7000A08F0130A0872046FCF721BF40F2FF1045
:103A800002F062B8204631462A46FFF731BB206873
:103A90006A46016841F0800101600021704700F131
:103AA000100121F00F01091A206802687047A1680F
:103AB0002046FCF7E3BEA06D40F020007047A06DEB
:103AC00040F008007047E28FB4F84200B4F84010AC
:103AD000B2EB900F70470446406D012870470221F9
:103AE0006164016841F0010101607047016841F4BF
:103AF0008041016070473860FDF798BC3118EA7862
:103B000095F8240041EA8256504764232268C2EBAC
:103B1000C202C2F34C425A4370478DF8060049F284
:103B2000C140ADF804007047DDE9088720464146F2
:103B30003A46FFF78FBB01251F4616468A46256485
:103B4000FDF774BC608D51464FF000732085C2B202
:103B500020460097704762F34E300860086840F0D6
:103B600001007047608DB0F5807F70470025C1610E
:103B700042681A40426061642564A56470474DF84C
:103B800008EDA1682046FCF779FE606900285DF821
:103B900008EB7047C4F89000FDF748BC21F40851C9
:103BA000396002217964B9F5807F7047204601F0C1
:103BB0003DBB304601F072BD0446B0F84260C06AB9
:103BC0000D46012870472685009720465146FF2262
:103BD0004FF0807370474FF40070E06470472068C6
:103BE000E9B200224346816220467047E06257F8FE
:103BF0000C0C00F44079B9F5807F704720463146BF
:103C000001F0E8BA0A6822F480720A608A6822F039
:103C100001028A608A6822F040028A60202270478E
:103C2000012000F0B1BD4A46FFF7F9BA21F48851EE
:103C3000396001217964B9F5807F70470446C06816
:103C400001287047016841F001010160204670477A
:103C500000902046FFF79EBA636B226853F820005D
:103C60009060E08F0130E087E08F53F82000906093
:103C7000E08F0130E087E08F53F820009060E08F04
:103C80000130E087E08F53F82000906070470021FA
:103C900094F8940001F0C2BE2A6A6969324342EA8C
:103CA0000060084370470E99002532463B46606429
:103CB0004020A064E564C4F824B06563A4F82A80B9
:103CC0008846CDE90019204651467047F8B50746A9
:103CD0007B481C4615460E46C06A804777483946E1
:103CE000324686807948FCF774FA734801214161B5
:103CF0004471057101200021BDE8F84002F0E8BFE1
:103D000080B56F48C06A80476B480321416101203C
:103D10000021BDE8804002F0DBBF00BF80B56848ED
:103D2000C06A804764480221416101200021BDE84A
:103D3000804002F0CDBF00BF80B56148C06A8047B7
:103D40005D480421416101200021BDE8804002F06E
:103D5000BFBF00BF80B55A48C06A8047564805219A
:103D6000416101200021BDE8804002F0B1BF00BFE9
:103D7000704780B5FEF7D0FE00200121BDE88040ED
:103D8000FDF756BD80B5FEF7C7FE0448012101606E
:103D90000120BDE88040FDF729BD00BF8804005820
:103DA0007047FEF7B5BC80B5FEF7B2FCBDE88040B9
:103DB00003F002BF70470000F8B53F4E707801284D
:103DC00079D1B078012807D13C484FF48071A0F830
:103DD00001100020B07031E0384F787860B3384877
:103DE000C168446B374888474FF4FA70A04736499A
:103DF000364C07F11400012301F1400521462A4603
:103E000003F0C6F8FFF7D6FB80B13878A0B906F109
:103E1000200021462A46012303F0BAF8FFF7CAFB27
:103E200050B9FDF703FB2A49086005E03069013805
:103E300002289CBF01203870B87888B31F4D01213B
:103E400005F1080003F044FC1F4C20490020202805
:103E500003D0225C0A540130F9E7287838B91B49AD
:103E600006F1200004F12002002303F091F804F190
:103E70002002164C05F114000023214603F088F8B7
:103E80000F48C168866AC76D12488847B8470A302C
:103E9000FDF7DCF829792046B0470120A5F801009C
:103EA00006480A4A002100238088DCB2A04202D9D9
:103EB00011550133F9E7F8BDBC01002004000020D2
:103EC000947E000880CF003734020020D004002008
:103ED000E40A0020C072EB36032811D870B50446FE
:103EE00008A00C4D0C4E0821FFF7DDFA0BA01021A5
:103EF000FFF7D9FA0DA02021FFF7D5FABDE87040F1
:103F000000207047000000000100000001000000D8
:103F10000100000000080048211400080000000013
:103F2000010000000100000000000000000000008F
:103F300000000000010000000100000002207047A6
:103F40000A20704770B586B000240594FFF7D2F9B7
:103F50000320144ECDE903400120114C02901020A3
:103F6000019001AD20462946B04720202946019006
:103F70002046B0470820294601902046B0470A4D08
:103F8000204620210022A847204610210022A847D1
:103F9000204608210022A847002006B070BD00BFBF
:103FA00000080048A11200082114000800207047F2
:103FB0000120704770B53C21214A01EA90001E495A
:103FC00008581E49FFF799FC1E49B0FBF1F4FDF7B4
:103FD00021FCB0F5007F09D11D49002003280FD036
:103FE00031F8102094420DD90130F7E7164900202E
:103FF000032805D031F81020944203D90130F7E7A7
:10400000002502E0114951F82050124E306820F08E
:1040100007002843FFF7E3FA0446306800F0070082
:10402000A84204BF002070BDFDF700FA001B032862
:1040300024BF032070BDF0E7547E0008080100583B
:10404000387D000840420F00267D00082C7D0008C6
:10405000207D00080040005880B50A480A4A0B4BF2
:104060000021C0E90911C1624161C0E90031C0E924
:104070000212FCF7EFFD18B1BDE88040FCF7BABCB6
:1040800080BD00BF14070020D4090020001800588C
:104090007FB50020204C02266425942103220123B1
:1040A000ADF80E00ADF80C000DF10E00FFF7EFF9C2
:1040B00003A8942104220123FFF7E9F99DF80C10CD
:1040C0009DF80E00FFF7D0F904B070BD10B5124C8A
:1040D00001200021114A124BC4E9021004F1100022
:1040E0001421C4E90032FCF78DF82046FDF7ECF905
:1040F00008B1FCF77FFC08480021FDF7A5F908B1DD
:10410000FCF778FC04480021FDF7BEF918B1BDE8C2
:104110001040FCF76FBC10BD880800205D3E3020C9
:10412000005C004080B50748074940F8281F00217F
:104130004160FEF7CBF818B1BDE88040FCF75ABCEF
:1041400080BD00BFF8000020001000581CB5002101
:10415000019101684A68520709D44A6822F0400276
:104160004A600169002421F0080101612DE00A681C
:1041700042F080420A600A6822F080420A6002220D
:104180000192019A013A0192019AA2B10A68520081
:10419000F7D44A68520603D54A6822F040024A60C2
:1041A00002220192019A013A0192019A1AB14A68D7
:1041B0005207F7D4D5E701240021C460816001696A
:1041C00041F002010161FEF737F820461CBD0000F6
:1041D0000148FEF75BB900BFDC0800200928014652
:1041E00098BF0921CAB20A23B2FBF3F202EB8203A1
:1041F000A1EB4303591A084440EA0210C0B27047C9
:104200002DE9F041114F80463868400619D43868CE
:104210000025012440F080003860FDF707F90646CC
:104220003868E14341EA9010C0070BD1FDF7FEF872
:10423000801BB0F57A7FF3D903250024C8F83050ED
:10424000EEE700252846BDE8F08100BF0C280040BD
:10425000B0B5114D044655F80C0C20F0800045F81F
:104260000C0C2868800605D4FEF738FA60B10320EC
:104270002063B0BD286820F020002860FEF72EFAE9
:1042800020B10320206302E00020B0BD0020296897
:1042900041F020012960B0BD18280040012070477E
:1042A00060B1074A0021B02907D053580831834232
:1042B000F9D9501810F8040C7047FEE71F2070471A
:1042C000A47D000880B501F065F8043803288EBF8E
:1042D000002002A151F8200080BD00BF02000000B4
:1042E00001000000000000000300000080B501F0A4
:1042F000A7F8033080BD00007CB5C14EC149002540
:104300003446C1E902550D7101C4174801F0F8F8AF
:10431000002000F05FFA01F0B9FA0020002101F05E
:1043200043F901200021042201F0CAFBFFF72EF916
:1043300000F02EFE0D4B20464FF0FF31002200957D
:1043400002F0DAFC009506F12005094B4FF0FF3131
:104350000022284602F0D0FC204602F095FD2846B7
:10436000BDE87C4002F090BD45450008614500086D
:1043700051450008BCB5F74CD4F89000B0F5007F6B
:104380003AD0022847D020287BD0402813D080285C
:104390001BD0B0F5807F23D0012840F08D80EE4CFB
:1043A000201D02F071FDFFF734FA2068002800F0AC
:1043B000838000687EE0207908B9FFF72AFAE64892
:1043C0000068002878D0006974E0FFF722FAE2481C
:1043D0000068002870D0816900296DD0002009E0B4
:1043E000FFF717FADC480068002865D081690029CA
:1043F00062D001208847BCBD00F0CCFF04284BD11F
:10440000D54C201D02F040FDFFF703FA206800287C
:1044100052D040684EE0D04D05F1200002F034FD4E
:10442000207980B9FFF7F5F940F60210002101F07C
:10443000ADFB40F6441001F09BF840F0020140F65D
:10444000441001F0A3FB1D480DF10701FF2200F00D
:10445000DFFF04F1500000F0A1FF286860B3856819
:1044600055B3206D9DF80710012807BF94F95D3002
:1044700094F95C2094F9583094F955200F48A847D6
:10448000BCBDB54D05F1200002F0FEFC207908B955
:10449000FFF7BFF928680BE000F07CFF05280BD17F
:1044A000AD4C04F1200002F0EFFCFFF7B2F92068F8
:1044B00010B1C06800B18047BCBD00BFF00400204F
:1044C0002DE9F0418AB01C4615468846074600F0A3
:1044D00068FD0020002600F057F9384601F0E6F9A3
:1044E000012041464FF416720023CDE90266CDE962
:1044F0000466CDE90666CDE908600320CDE90080B9
:10450000002000F083F9002000F046F8FFF7EEFEEF
:10451000FCF79CFD02F00AFC0646304602F010FC57
:104520000746A04203D200F0BFFFA842F5DD0025F8
:10453000A74228BF012500F034FD28460AB0BDE897
:10454000F0810000B049C1F89000FFF713BF00BF31
:104550008148006810B1C06800B10047704700BFD3
:104560007D48006810B1406800B10047704700BF47
:1045700080B5FFF755FB00200021FFF759F8BDE893
:10458000804000F05FBF00F0F3BF00F0FDBF80B5DA
:1045900000F08AFF80BD0000B0B50446FEF7F6FFCC
:1045A0002CB16D48FFF7E7F9284602F037FC964C2E
:1045B000FFF76DFB21796FF07F40E268002908BFAB
:1045C0009001BDE8B04001F0A1B900BFB0B504460C
:1045D000FEF7DCFF2CB16048FFF7CDF9284602F06A
:1045E0001DFC894CFFF753FB21796FF07F40E26897
:1045F000002908BF9001BDE8B04001F099B900BFA3
:1046000060010020F00500202DE9F04F89B08A46B6
:10461000064640F2012040F20121FFF709F8DFF8D9
:10462000008B012198F8940001F0F8F9D8F8000007
:10463000032800F28180DFE800F002050A1688F8FE
:104640002CA001E088F844A008F1140005E0022144
:10465000404640F8141F80F824A001F097F8304637
:104660005146002266E0EB4623215846FBF7CAFD7F
:104670000020514632465B4639B1177803F8010BEA
:104680000139FF4302F8017BF6E74FEACA07002031
:1046900007210022974216D0C2F3C70421EA020381
:1046A0000132345D24FA03F321EA020403F001032A
:1046B0005840C3B2A340C2F3C7041BF804502B43B5
:1046C0000BF80430E6E7C10146460AF1010941EA68
:1046D0008011C0B2B0FA80F0400941EA40100BF8F6
:1046E0000A00022046F8140F304686F8249001F0A4
:1046F0004DF8746EE74EF1200021B047F020002104
:10470000B047E121642C08BF7021F320B047042199
:10471000642C08BF1D21F220B0474FEA5A11F42043
:10472000B047B81CC1B2F520B0475FFA89F15846CE
:104730006FF07F4200F02EFF0748D8F80810041DE4
:10474000204602F053FB204602F068FB09B0BDE8AA
:10475000F08F00BFF00500206001002001F0A6B836
:10476000D54A012802D102F1440005E0906A0128EF
:1047700018BF704702F12C000170C348017002F1AC
:10478000140001F003B800BFB0B5CB4C0128206085
:104790000AD0032803D0042815D1002000E002200D
:1047A000BDE8B04001F058B8012001F055F8207C78
:1047B000617C81420CD06074002818BF0120BDE8E4
:1047C000B04000F007B80020002501F045F86574FE
:1047D000B0BD00BF10B50446B74844740474FFF779
:1047E0001FFA14214FF4E860002C18BF342101F0A7
:1047F000CDF9242140F24170002C18BF4421BDE8BE
:10480000104001F0C3B900BFF00500202DE9F04FC2
:1048100085B01446DDE911820D46DFF804B9179919
:104820001F46994BDDF84090DDF83CA0B8F1000F31
:104830008BF8041008BF4FF0FF321A70002918BF20
:104840004FF0000900286AD0012800F0B380042846
:1048500040F017810120984601F0D4F809204FF468
:10486000487100275E46CBF870002846CBE91A4114
:1048700046F8647FFFF714FD5D4645F8147F85F820
:1048800060001020C5E90477AF6028734FEACA00C2
:10489000A8800120C5E9070798F8000028760420C1
:1048A000FFF772FFFFF785F9284600F06FFF42F22D
:1048B000B270CDF80E70ADF81270ADF80C0003A810
:1048C00001F0C0F8FFF7DAF8714E40F6B800B047D3
:1048D000704D00F0EF0140F6B800A84740F6B9006F
:1048E0000421A84740F69B00B04700F0E30000F128
:1048F000080140F69B00A84740F2D160B04740F065
:10490000180140F2D160A84740F2AC60B04700F017
:104910008F0000F1500140F2AC60A84743E0002056
:10492000002701F06FF80B205E46CBF86840CBF80B
:104930007000284646F8647FFFF7B2FC5D46139985
:1049400045F8147F85F8600088F00100C5E904701F
:10495000182028730420A8604FEACA00A88001200C
:1049600000294FF0010118BFF221C5E907104648A0
:104970000078287600F015FB3068002818BF012069
:10498000FFF702FFFFF715F9284600F0FFFEC120F0
:10499000CDF807708DF80B70FFF7BFF801A801F094
:1049A00051F8FFF76BF84FF4FA5009FB00F0B0FB39
:1049B000F4F064E000204FF0000B01F023F83349DD
:1049C000A54E012085F00103BAF10C0F51F8251016
:1049D00046F8640F776246F8248CC6E907415146D1
:1049E00098BF0C21621F022A28BF514626F8281CB6
:1049F00084F00C02139946F81C1C169946F8181CF2
:104A0000FB49097806F8201CA4F10B013446022961
:104A100038BF4FF0010BB5FA85F144F8500D1A4339
:104A20004909B2FA82F201EA0B01DFF8F4B6520941
:104A3000114386F8281000F0B4FA3068002818BF37
:104A40000120FFF7A1FEFFF7B4F8204600F09EFE1C
:104A50005FFA89F000F002FE56F8180C441E40F28E
:104A6000367018BF012400F083FD00F0FB0040EA1F
:104A7000840140F2367001F089F84FF6FF70CBF8F0
:104A80000C0005B0BDE8F08F38000020987D0008CC
:104A9000715500088D5B0008B0B50546D3480C463B
:104AA000002190F8940000F0B9FF28462146BDE8A7
:104AB000B04000F05BBF00BFF00500202DE9FE43D1
:104AC0000D46002A1146C94C1E4618BF0121002779
:104AD000002A2171CDE9007718BF3E46012812D087
:104AE000002840F0B580E86870B3286960B3287E7C
:104AF000082829D800216A46884228D0EB695B5CE7
:104B000053540131F8E7B5F85000E8B1686D012859
:104B10000CBF2F6AFF27E86B002818BF012000F0A8
:104B200071FFF0B200F09AFD0120E96C05F140033D
:104B300004F1800660660DCB0DC669B102290DD067
:104B4000012913D101200FE04FF0FF3780E0E86A20
:104B5000C8B34FF0FF0938E0002005E0A0F10B01D9
:104B60000020022938BF012084F88C000120D5E9FB
:104B7000171244F8140FB5F8500084F83070C4E9E7
:104B80000D122085686DE06200F00BFAFFF748F81F
:104B900004F1500000F082FD204600F0F7FDA06B0C
:104BA000451E40F2367018BF012500F0E1FC00F010
:104BB000FB0040EA850140F2367000F0E7FF4FF657
:104BC000FF70002742E0D5F820902868002818BF21
:104BD000012000F017FFD5E90110EA680027A04680
:104BE00048F8647FA2662167FFF75AFB44F8147FF8
:104BF000E96A84F86000686984F81890A060A86A7F
:104C0000C4E90401286BA96BC4E90701288AC00024
:104C1000A080287EC000207300F0C3F90020FFF7B9
:104C2000B3FD404600F03AFD204600F0AFFD684677
:104C300000F008FFA88C00F087FFA88E00F0CEFCE3
:104C40004FF4FA50E9687043B0FBF1F044F8080CF7
:104C50003846BDE8FE8300BFF00500202DE9FE4F79
:104C6000149FDDF84080DDE90EA9DDF830B00E4676
:104C7000054688B1012D53D0032D40F098800320C4
:104C8000FFF782FDC148022140F8641F1621C0E9E8
:104C900005B100F003FD8AE00096BC4E0B201446DF
:104CA0003067C6F868B018464FF0000B374647F833
:104CB00064BFFFF7F5FA46F814BF012186F86000DB
:104CC0000120B465B8F1000F18BFF221C6E9071042
:104CD00089F00100C6E904B0182030730420B060E8
:104CE0004FEACA00B08000F05CF93868002818BFAD
:104CF0000120FFF749FD384600F0D0FC3046009E09
:104D000000F044FDC120CDF807B08DF80BB0149F22
:104D1000FEF703FF01A800F095FEFEF7AFFE46E0A8
:104D200000969A4E01201399EA4C0D9ABAF10C0F95
:104D300046F8140F54F82340C6E90D812C497267D8
:104D4000C6F82C90ABF10502C6E91BB434460978CD
:104D500086F83010514698BF0C21022A28BF5146D0
:104D600031850022ABF10B010229B3FA83F138BF80
:104D7000012283F0010344F8500F490911408BF0E0
:104D80000C021A43B2FA82F25209114386F87810E3
:104D900000F007F92068002818BF0120FFF7F4FC95
:104DA000204600F07BFC3046009E00F0EFFCDC4C1F
:104DB00085F00100D4F8841081F0060150EA010565
:104DC00040F6890018BF012500F0D2FB00F0FB007F
:104DD00040EA850140F6890000F0D8FE304600F038
:104DE00081FD84F89400A760BDE8FE8FF0050020E7
:104DF00038000020B0B514460D4600F057FD284697
:104E000000F070FD012100F009FE4FF47A70444378
:104E100000F048FE05482146051D284601F0E6FF42
:104E20002846BDE8B04001F0F9BF00BF6001002096
:104E30002DE9FE4F0E4600219A4615460228CDE97F
:104E4000001117D001281ED0002840F09380B068D0
:104E5000A8B1D6F81090B9F1000F10D0347D082C0D
:104E60000DD800216A468C4250D0B3695B5C535424
:104E70000131F8E7B06810B1B0F57A7F38D94FF05A
:104E8000FF30BDE8FE8FA64F06F1300401201ECC96
:104E9000002C47F8140F07F16C0CACE80E00B6F8C4
:104EA00040103985716CF962B16C7963F16C3E46E2
:104EB000B96318BF012487F8784046F8500F00F016
:104EC00070F8FEF7ADFEFEF774FE384600F05EFCAB
:104ED0003C6F40F6890000F04BFB062C0CBF00F045
:104EE000FB0140F0040140F6890000F04FFE41E074
:104EF00002200224FFF748FC8948162140F8644F3D
:104F00008161316D416100F0C9FB33E0844F4FF0A6
:104F1000000BB866D6E90010B84648F864BF396798
:104F2000FFF7BEF947F814BFD6E90812F36A87F80D
:104F30006000F068C7E904B1C7E90723B865E0007D
:104F400038730420B8604FEAC900B88000F029F82F
:104F50000020FFF719FC404600F0A0FB384600F0A7
:104F600015FC684600F06EFDB08B00F0EDFD308D55
:104F700000F034FB284600F0B5FC694981F8940044
:104F80000020C1F808A0BDE8FE8F00BFF00500209A
:104F900080B5042000F008FD0220BDE88040FCF749
:104FA00055B8002000F01ABD80B54FF4C0704FF422
:104FB000C071FEF73DFBBDE8804000F003BB000080
:104FC000F0B50DF1140C089E01289CE8901010D04B
:104FD000002860D10CEB0400002E18BF0230202105
:104FE000002F18BF182101EBC0004FF47A7148431D
:104FF00053E019B9A2F10B00022804D300200129C3
:1050000008BF0C2A00D101201425002F18BF00254D
:10501000A5EB8205002E6FF0070618BF1035072A92
:1050200005EBCC0528BF08359700002818BF06EB14
:1050300082070C26072A38BF97003846002DC8BFC4
:10504000284401380C250C2C90FBF7F088BF26462D
:10505000571F022F28BF2646072A38BF0E25AC1936
:105060000433023A00FB03408000013090404FF4CB
:105070007A725043174A52F8211000220A290CD89C
:10508000DFE801F006101316191B1D0B1F22250067
:1050900041F6846201E00122002010440138B0FB97
:1050A000F2F0F0BD43F60952F7E747F61222F4E7B3
:1050B0004FF22442F1E70A4AEFE7084AEDE7064AD1
:1050C000EBE742F6B102E8E745F26112E5E74AF2A2
:1050D000C322E2E7987D000820A1070090D00300DA
:1050E00048E8010080B500F0FDFB012100F096FCCE
:1050F000BDE8804000F0D6BC80B50948012190F899
:10510000940000F08BFC4FF4D7602D2100F03EFDA1
:1051100000F0CEFC0348BDE8804000F0B1BC00BF09
:10512000F0050020FFFF0F0000F030BD00F03ABD99
:1051300010B50446FEF73AFF012818BF10BD40F62F
:10514000231000F015FA00F0F90040EA040140F6DF
:105150002310BDE8104000F019BD80B5012002F019
:1051600047FD0520FBF772FF0020BDE8804002F0FC
:105170003FBD000000210D4AB0F5803F38BF01213E
:1051800038BF00040901B0F1807F3CBF0831000244
:10519000B0F1805F38BF043138BF0001000F81F0EB
:1051A0001F01105C081AC0B2704700BFB47F00082E
:1051B000074940F441700A6822F040020A60086022
:1051C0004FF4B8504860086840F0400008607047ED
:1051D00000000158B8B5484CFEF797FC284B0092E8
:1051E000009A3AB1009A013A00921A689207F7D5EC
:1051F000002201E001220261FF251D71642524685F
:10520000C4EBC404C4F34C446C430094009C34B11C
:10521000009C013C00941C68E407F7D001E00122E7
:105220000261586808701046B8BD00BF18B5324C0E
:10523000FEF76BFC124B0092009A3AB1009A013AC9
:1052400000921A689207F7D5002201E0012202615C
:10525000197121686424C1EBC101C1F34C41614360
:105260000091009931B10099013900911968C9077D
:10527000F7D001E0012202615868104618BD00BF56
:1052800008000158B0B50446007901280BD1084D3B
:10529000286820F4004028600120FBF7D7FE28682A
:1052A00040F4004028602046BDE8B04000F006B859
:1052B00090040058E848FDF7AFBA00BF81B00E492E
:1052C0006422096801EB4101C1F34B415143009154
:1052D0000A490A68009B53B1009B9208013B009366
:1052E0000B6802EA5302D207F3D1002002E0022148
:1052F0000161012001B070473C00002014040058F7
:10530000E0B500F07F000DF10702892101238DF83F
:105310000700E148FDF73EFA8CBD00BFE0B5184933
:10532000884204D3E1208DF80600E9201EE01549EB
:10533000884204D3D7208DF80600DB2016E01249FE
:10534000884204D3C1208DF80600C5200EE00F4925
:10535000884204D375208DF80600812006E00C49B0
:10536000884205D36B208DF806006F208DF807006A
:10537000C9480DF1060298210223FDF70BFA8CBDF6
:1053800001E9A43581F8A9328144E52D010B6B1B9D
:1053900041FC5419A148C068704700BF1CB50446C1
:1053A000BD480DF1050214210323FDF7C9F9ED48AD
:1053B00001690129216010D009BB9DF805009DF805
:1053C00006109DF8072020710020A0604842400888
:1053D000A0715042400860711CBD40689DF80710E4
:1053E00020619DF805004042400820739DF90600A9
:1053F00002308008607348424008A0731CBD2046FC
:105400000021142201F0D4FB0F2020601CBD00BF3E
:105410007CB50E46044600200DF1070115468DF8B7
:105420000700304600F04EF83278AA4284BF0120CF
:105430007CBD9DF80700214600F094F800207CBD5B
:10544000FEF77EBD7CB50020019040F6E20000F042
:105450008FF8144E044600F0FE0140F6E200B0471B
:1054600040F6E50000F084F8054600F07F0140F6C4
:10547000E500B0476FF07F4000F048FA01A940F620
:105480001900042200F080F8002000F0A7FA40F68E
:10549000E2002146B04740F6E5002946B0470198B2
:1054A0007CBD00BF8D5B0008E0B5EA480DF1070246
:1054B00015210123FDF744F99DF8070040424010F3
:1054C0008CBD00BFBCB50546EC480C460DF106028C
:1054D00013210223FDF734F9E7480169012907D1B7
:1054E0004069012804D140F2027000F041F801E067
:1054F0009DF8060028709DF807002070BCBD00BF15
:1055000010B508B1DC4988600220FFF711FEFDF7F5
:105510005DFFD94C00202070002000F05FFAFEF7FC
:1055200047FD01280ED1FEF70BFD8101012000F09F
:1055300093FA40F61110002100F028FB7F20FFF7BE
:10554000DFFE09E040F61110202100F01FFB40F6BD
:105550001210202100F01AFBFEF7F4FC0120E0609D
:1055600010BD00BF13460A460146F048FDF708BAD1
:10557000E0B50146ED480DF107020123FDF72AFAD7
:105580009DF807008CBD00BF13460A460146E74858
:10559000FDF720BA10B5144600F072F92046BDE8B8
:1055A000104000F06DBA0000E0B58DF80600EE483E
:1055B0008DF807100DF106028F210223FDF7EAF89E
:1055C0008CBD00BF80B5E848C52100220023FDF74F
:1055D000E1F8E4480721C16080BD00BFE0B540BAF2
:1055E000ADF80600EF48006900B18CBD0DF1060171
:1055F00040F2BE60022200F0D5FA8CBDE0B540BAA0
:10560000ADF80600F448006900B18CBD0DF106014B
:1056100040F2BC60022200F0C5FA8CBD9C01002063
:10562000E0B58DF80100000A8DF807301B0A8DF8EF
:105630000520120A8DF80310090A8DF80000EF48C2
:105640008DF806308DF804208DF802106A46082186
:105650000823FDF79FF88CBD18090020E0B58DF8F0
:105660000700ED480DF10702A021FDF797FF9DF817
:10567000070040280ED341080020CAB2202A02D3D6
:1056800001309108F9E700EBC100C1B240F20670A9
:1056900000F07CFA8CBD00BF180900201CB5D84969
:1056A00004460020CDE9000020680969814202D04B
:1056B00000F0D2F82168032952D8DFE801F0022473
:1056C0003339221D002307CA8DF80320227C8DF870
:1056D0000420254AB2FBF0F0020A8DF80200000C0B
:1056E0008DF801207E4A8DF800004806C909FAF7B6
:1056F0003FFD010A8DF80700000C08238DF8061005
:105700008DF8050027E004F11C02042307CA8DF878
:1057100001108DF802208DF8000094F828008DF813
:10572000030018E0D4E9050104238DF8031007E015
:10573000E168606805238DF80310217C8DF8041062
:105740000949B1FBF0F0010A8DF80200000C8DF858
:1057500001108DF80000D9486A468B21FDF71AF830
:105760001CBD00BF9C0100200000093DE0B58DF884
:105770000400F4488DF807308DF805108DF80620E8
:1057800001AA95210423FDF705F88CBDBFB5C44DD2
:10579000044600208DF80C00CDE90100206829693D
:1057A000814202D000F058F82168032951D8DFE87F
:1057B00001F002112202E069F22822D0F12829D159
:1057C0004FF6FF70FFF71AFF48F20500FFF706FFDC
:1057D00002201FE0E06A062368618DF8060094F855
:1057E00030008DF80700D4E90D018DF80800208DF8
:1057F0008DF8091024E094F8240001238DF80400AA
:1058000022E041F60F50FFF7F9FE41F22100FFF7C9
:10581000E5FE06208DF80B00A06809238DF8060030
:10582000207B8DF80700D4E904018DF80800207E64
:105830008DF809108DF80A00206A8DF80C00A088F8
:1058400000BA000CADF80400D94801AA8C21FCF77D
:10585000A1FFBFBD18090020E0B5C849019008614B
:1058600020B940F2AC60002100F090F9D04801AAC4
:105870008A21FDF793FE8CBD9C01002018090020B1
:105880000A460146002000F07BB90000E0B5FEF7B3
:105890008DFB013896210123B0FA80F04009019078
:1058A000C34801AAFCF776FF8CBD00BFBCB5B34D61
:1058B0000446287820B92046FFF730FD01202870E3
:1058C000074A6006E1090023FAF752FC00BA862174
:1058D00004230190B64801AAFCF75CFFBCBD00BFE1
:1058E0000048E801B0B50446FEF728FB022805D0C1
:1058F000012520B90F2CC8BF022500E0022528464B
:105900002146022200F0DCF82846B0BDE0B59B49F4
:105910000522FDF791FE0DF105028DF80500A44862
:105920008DF806108221FCF735FF8CBD1809002088
:105930001CB5044691480521C16040F6AC00972192
:1059400000F024F9200A0DF10502822103238DF8CD
:1059500007408DF80600200C8DF805009448FCF7F0
:1059600019FF1CBD9C010020180900201CB50A0A63
:105970008DF80710090C8DF80400062306248DF815
:105980000510010A000C8DF806200DF102028DF8B9
:10599000020087488DF803109421FCF7FBFE77483E
:1059A000C4601CBD9C010020BCB50446002000253D
:1059B000FEF792FA0220FFF7BBFB04F007000DF19F
:1059C0000702842101238DF807007948FCF7E2FEE5
:1059D0006A48C560BCBD00BF9C010020E0B50190D5
:1059E000734801AA8021FDF7D9FD01990220002901
:1059F000624908BF0120C8608CBD00BF18090020A3
:105A00009C010020E0B58DF8070069480DF1070200
:105A10009F21FDF7C3FD8CBD1809002079B1012934
:105A20000AD1012808D180B50420FFF781FB0220AC
:105A3000BDE88040FEF750BA0220FEF74DBA0120C3
:105A4000FEF74ABA80B501464FF4D860082200F04C
:105A5000A9F8002080BD0000E0B500F007008DF837
:105A6000071004238DF80400080A8DF80600080CBE
:105A700097218DF805004E4801AAFCF78BFE8CBDDE
:105A8000E0B53E490422FDF7D7FD0DF105028DF882
:105A9000050047488DF806108321FCF77BFE8CBD7E
:105AA0009C0100204248D12100220023FCF772BE55
:105AB0003F48D22100220023FCF76CBE18090020C9
:105AC000BCB514460D46012812D104200F2D08BF85
:105AD0000620002101220123FFF748FE15F1110FD6
